{
  "address": "0x085EA49DC60F1f237D01c69b01Ed3fa296d36d1d",
  "abi": [
    {
      "anonymous": false,
      "inputs": [
        {
          "indexed": true,
          "internalType": "address",
          "name": "locker",
          "type": "address"
        },
        {
          "indexed": true,
          "internalType": "address",
          "name": "lpToken",
          "type": "address"
        },
        {
          "indexed": true,
          "internalType": "address",
          "name": "beneficiary",
          "type": "address"
        },
        {
          "indexed": false,
          "internalType": "uint256",
          "name": "unlockTime",
          "type": "uint256"
        },
        {
          "indexed": false,
          "internalType": "uint256",
          "name": "amount",
          "type": "uint256"
        }
      ],
      "name": "LiquidityLocked",
      "type": "event"
    },
    {
      "anonymous": false,
      "inputs": [
        {
          "indexed": true,
          "internalType": "address",
          "name": "creator",
          "type": "address"
        },
        {
          "indexed": true,
          "internalType": "address",
          "name": "token",
          "type": "address"
        },
        {
          "indexed": false,
          "internalType": "string",
          "name": "name",
          "type": "string"
        },
        {
          "indexed": false,
          "internalType": "string",
          "name": "symbol",
          "type": "string"
        },
        {
          "indexed": false,
          "internalType": "uint256",
          "name": "supply",
          "type": "uint256"
        }
      ],
      "name": "TokenCreated",
      "type": "event"
    },
    {
      "inputs": [
        {
          "internalType": "uint256",
          "name": "",
          "type": "uint256"
        }
      ],
      "name": "allTokens",
      "outputs": [
        {
          "internalType": "address",
          "name": "token",
          "type": "address"
        },
        {
          "internalType": "address",
          "name": "creator",
          "type": "address"
        },
        {
          "internalType": "string",
          "name": "name",
          "type": "string"
        },
        {
          "internalType": "string",
          "name": "symbol",
          "type": "string"
        },
        {
          "internalType": "uint256",
          "name": "supply",
          "type": "uint256"
        },
        {
          "internalType": "uint256",
          "name": "timestamp",
          "type": "uint256"
        },
        {
          "internalType": "string",
          "name": "imageURI",
          "type": "string"
        }
      ],
      "stateMutability": "view",
      "type": "function"
    },
    {
      "inputs": [],
      "name": "allTokensLength",
      "outputs": [
        {
          "internalType": "uint256",
          "name": "",
          "type": "uint256"
        }
      ],
      "stateMutability": "view",
      "type": "function"
    },
    {
      "inputs": [
        {
          "internalType": "string",
          "name": "name_",
          "type": "string"
        },
        {
          "internalType": "string",
          "name": "symbol_",
          "type": "string"
        },
        {
          "internalType": "uint256",
          "name": "initialSupply",
          "type": "uint256"
        },
        {
          "internalType": "uint256",
          "name": "feeBasisPoints",
          "type": "uint256"
        },
        {
          "internalType": "address",
          "name": "feeCollector",
          "type": "address"
        },
        {
          "internalType": "string",
          "name": "imageURI",
          "type": "string"
        }
      ],
      "name": "createMemeToken",
      "outputs": [
        {
          "internalType": "address",
          "name": "token",
          "type": "address"
        }
      ],
      "stateMutability": "nonpayable",
      "type": "function"
    },
    {
      "inputs": [],
      "name": "getAllTokens",
      "outputs": [
        {
          "components": [
            {
              "internalType": "address",
              "name": "token",
              "type": "address"
            },
            {
              "internalType": "address",
              "name": "creator",
              "type": "address"
            },
            {
              "internalType": "string",
              "name": "name",
              "type": "string"
            },
            {
              "internalType": "string",
              "name": "symbol",
              "type": "string"
            },
            {
              "internalType": "uint256",
              "name": "supply",
              "type": "uint256"
            },
            {
              "internalType": "uint256",
              "name": "timestamp",
              "type": "uint256"
            },
            {
              "internalType": "string",
              "name": "imageURI",
              "type": "string"
            }
          ],
          "internalType": "struct MemeLaunchpad.TokenInfo[]",
          "name": "",
          "type": "tuple[]"
        }
      ],
      "stateMutability": "view",
      "type": "function"
    },
    {
      "inputs": [
        {
          "internalType": "address",
          "name": "lpToken",
          "type": "address"
        },
        {
          "internalType": "uint256",
          "name": "amount",
          "type": "uint256"
        },
        {
          "internalType": "uint256",
          "name": "unlockTime",
          "type": "uint256"
        },
        {
          "internalType": "address",
          "name": "beneficiary",
          "type": "address"
        }
      ],
      "name": "lockLiquidity",
      "outputs": [
        {
          "internalType": "address",
          "name": "locker",
          "type": "address"
        }
      ],
      "stateMutability": "nonpayable",
      "type": "function"
    },
    {
      "inputs": [
        {
          "internalType": "address",
          "name": "",
          "type": "address"
        },
        {
          "internalType": "uint256",
          "name": "",
          "type": "uint256"
        }
      ],
      "name": "tokensByCreator",
      "outputs": [
        {
          "internalType": "address",
          "name": "",
          "type": "address"
        }
      ],
      "stateMutability": "view",
      "type": "function"
    },
    {
      "inputs": [
        {
          "internalType": "address",
          "name": "creator",
          "type": "address"
        }
      ],
      "name": "tokensOf",
      "outputs": [
        {
          "internalType": "address[]",
          "name": "",
          "type": "address[]"
        }
      ],
      "stateMutability": "view",
      "type": "function"
    }
  ],
  "transactionHash": "0xdb7c3dc3fefbf436890f28f237a4016a41ad8329ca53b453b88dd7a53c2e0205",
  "args": [],
  "numDeployments": 1,
  "solcInputHash": "28bc0a012219724943d9a759a4451bab",
  "bytecode": "0x608060405234801561001057600080fd5b50613142806100206000396000f3fe60806040523480156200001157600080fd5b5060043610620000875760003560e01c806365c9eb56116200006257806365c9eb5614620001005780637f4d4fa81462000130578063d80d03a21462000147578063dbb80e42146200015e57600080fd5b80632a5c792a146200008c5780635a3f267214620000ae578063634282af14620000d4575b600080fd5b6200009662000170565b604051620000a5919062000b5f565b60405180910390f35b620000c5620000bf36600462000c5f565b620003d6565b604051620000a5919062000c84565b620000eb620000e536600462000cd3565b6200044e565b604051620000a5979695949392919062000ced565b620001176200011136600462000e0a565b6200065b565b6040516001600160a01b039091168152602001620000a5565b620001176200014136600462000ec1565b62000865565b620001176200015836600462000f0c565b62000ac2565b600054604051908152602001620000a5565b60606000805480602002602001604051908101604052809291908181526020016000905b82821015620003cd5760008481526020908190206040805160e0810182526007860290920180546001600160a01b0390811684526001820154169383019390935260028301805492939291840191620001ed9062000f39565b80601f01602080910402602001604051908101604052809291908181526020018280546200021b9062000f39565b80156200026c5780601f1062000240576101008083540402835291602001916200026c565b820191906000526020600020905b8154815290600101906020018083116200024e57829003601f168201915b50505050508152602001600382018054620002879062000f39565b80601f0160208091040260200160405190810160405280929190818152602001828054620002b59062000f39565b8015620003065780601f10620002da5761010080835404028352916020019162000306565b820191906000526020600020905b815481529060010190602001808311620002e857829003601f168201915b505050505081526020016004820154815260200160058201548152602001600682018054620003359062000f39565b80601f0160208091040260200160405190810160405280929190818152602001828054620003639062000f39565b8015620003b45780601f106200038857610100808354040283529160200191620003b4565b820191906000526020600020905b8154815290600101906020018083116200039657829003601f168201915b5050505050815250508152602001906001019062000194565b50505050905090565b6001600160a01b0381166000908152600160209081526040918290208054835181840281018401909452808452606093928301828280156200044257602002820191906000526020600020905b81546001600160a01b0316815260019091019060200180831162000423575b50505050509050919050565b600081815481106200045f57600080fd5b60009182526020909120600790910201805460018201546002830180546001600160a01b0393841695509290911692916200049a9062000f39565b80601f0160208091040260200160405190810160405280929190818152602001828054620004c89062000f39565b8015620005195780601f10620004ed5761010080835404028352916020019162000519565b820191906000526020600020905b815481529060010190602001808311620004fb57829003601f168201915b505050505090806003018054620005309062000f39565b80601f01602080910402602001604051908101604052809291908181526020018280546200055e9062000f39565b8015620005af5780601f106200058357610100808354040283529160200191620005af565b820191906000526020600020905b8154815290600101906020018083116200059157829003601f168201915b505050505090806004015490806005015490806006018054620005d29062000f39565b80601f0160208091040260200160405190810160405280929190818152602001828054620006009062000f39565b8015620006515780601f10620006255761010080835404028352916020019162000651565b820191906000526020600020905b8154815290600101906020018083116200063357829003601f168201915b5050505050905087565b60008087878733888888604051620006739062000afb565b62000685979695949392919062000f75565b604051809103906000f080158015620006a2573d6000803e3d6000fd5b506040805160e0810182526001600160a01b03808416825233602083019081529282018c8152606083018c9052608083018b90524260a084015260c0830188905260008054600181018255908052835160079091027f290decd9548b62a8d60345a988386fc84ba6bc95484008f6362f93160ef3e563810180549285166001600160a01b031993841617815595517f290decd9548b62a8d60345a988386fc84ba6bc95484008f6362f93160ef3e56482018054919095169216919091179092555193955085945090927f290decd9548b62a8d60345a988386fc84ba6bc95484008f6362f93160ef3e565909101906200079c90826200102c565b5060608201516003820190620007b390826200102c565b506080820151600482015560a0820151600582015560c08201516006820190620007de90826200102c565b505033600081815260016020818152604080842080549384018155845292200180546001600160a01b0319166001600160a01b03871690811790915590519092507f6e6ae68e7d7d45fbd855c40d1eaafa8de46c5fbec3ee26f1af88730e400bc92c9062000852908c908c908c90620010f9565b60405180910390a3509695505050505050565b6000808411620008aa5760405162461bcd60e51b815260206004820152600b60248201526a16995c9bc8185b5bdd5b9d60aa1b60448201526064015b60405180910390fd5b428311620008fb5760405162461bcd60e51b815260206004820152601a60248201527f556e6c6f636b2074696d65206d757374206265206675747572650000000000006044820152606401620008a1565b6001600160a01b038216620009465760405162461bcd60e51b815260206004820152601060248201526f5a65726f2062656e656669636961727960801b6044820152606401620008a1565b6000858385604051620009599062000b09565b6001600160a01b0393841681529290911660208301526040820152606001604051809103906000f08015801562000994573d6000803e3d6000fd5b506040516323b872dd60e01b81523360048201526001600160a01b03808316602483015260448201889052919350839250908716906323b872dd906064016020604051808303816000875af1158015620009f2573d6000803e3d6000fd5b505050506040513d601f19601f8201168201806040525081019062000a18919062001133565b62000a585760405162461bcd60e51b815260206004820152600f60248201526e151c985b9cd9995c8819985a5b1959608a1b6044820152606401620008a1565b826001600160a01b0316866001600160a01b0316836001600160a01b03167fc5a836c46c8b17eb789de5792db3980d43142d4730af6abc60ab0a334c59b9f9878960405162000ab1929190918252602082015260400190565b60405180910390a450949350505050565b6001602052816000526040600020818154811062000adf57600080fd5b6000918252602090912001546001600160a01b03169150829050565b61180b806200115883390190565b6107aa806200296383390190565b6000815180845260005b8181101562000b3f5760208185018101518683018201520162000b21565b506000602082860101526020601f19601f83011685010191505092915050565b60006020808301818452808551808352604092508286019150828160051b87010184880160005b8381101562000c3457888303603f19018552815180516001600160a01b0390811685528882015116888501528681015160e08886018190529062000bcd8287018262000b17565b9150506060808301518683038288015262000be9838262000b17565b92505050608080830151818701525060a080830151818701525060c0808301519250858203818701525062000c1f818362000b17565b96890196945050509086019060010162000b86565b509098975050505050505050565b80356001600160a01b038116811462000c5a57600080fd5b919050565b60006020828403121562000c7257600080fd5b62000c7d8262000c42565b9392505050565b6020808252825182820181905260009190848201906040850190845b8181101562000cc75783516001600160a01b03168352928401929184019160010162000ca0565b50909695505050505050565b60006020828403121562000ce657600080fd5b5035919050565b6001600160a01b0388811682528716602082015260e06040820181905260009062000d1b9083018862000b17565b828103606084015262000d2f818862000b17565b90508560808401528460a084015282810360c084015262000d51818562000b17565b9a9950505050505050505050565b634e487b7160e01b600052604160045260246000fd5b600082601f83011262000d8757600080fd5b813567ffffffffffffffff8082111562000da55762000da562000d5f565b604051601f8301601f19908116603f0116810190828211818310171562000dd05762000dd062000d5f565b8160405283815286602085880101111562000dea57600080fd5b836020870160208301376000602085830101528094505050505092915050565b60008060008060008060c0878903121562000e2457600080fd5b863567ffffffffffffffff8082111562000e3d57600080fd5b62000e4b8a838b0162000d75565b9750602089013591508082111562000e6257600080fd5b62000e708a838b0162000d75565b9650604089013595506060890135945062000e8e60808a0162000c42565b935060a089013591508082111562000ea557600080fd5b5062000eb489828a0162000d75565b9150509295509295509295565b6000806000806080858703121562000ed857600080fd5b62000ee38562000c42565b9350602085013592506040850135915062000f016060860162000c42565b905092959194509250565b6000806040838503121562000f2057600080fd5b62000f2b8362000c42565b946020939093013593505050565b600181811c9082168062000f4e57607f821691505b60208210810362000f6f57634e487b7160e01b600052602260045260246000fd5b50919050565b60e08152600062000f8a60e083018a62000b17565b828103602084015262000f9e818a62000b17565b604084018990526001600160a01b03888116606086015260808501889052861660a085015283810360c0850152905062000d51818562000b17565b601f8211156200102757600081815260208120601f850160051c81016020861015620010025750805b601f850160051c820191505b8181101562001023578281556001016200100e565b5050505b505050565b815167ffffffffffffffff81111562001049576200104962000d5f565b62001061816200105a845462000f39565b8462000fd9565b602080601f831160018114620010995760008415620010805750858301515b600019600386901b1c1916600185901b17855562001023565b600085815260208120601f198616915b82811015620010ca57888601518255948401946001909101908401620010a9565b5085821015620010e95787850151600019600388901b60f8161c191681555b5050505050600190811b01905550565b6060815260006200110e606083018662000b17565b828103602084015262001122818662000b17565b915050826040830152949350505050565b6000602082840312156200114657600080fd5b8151801515811462000c7d57600080fdfe60806040523480156200001157600080fd5b506040516200180b3803806200180b8339810160408190526200003491620004bb565b838787600362000045838262000613565b50600462000054828262000613565b5050506001600160a01b0381166200008757604051631e4fbdf760e01b8152600060048201526024015b60405180910390fd5b62000092816200014a565b50620000b884620000a66012600a620007f4565b620000b290886200080c565b6200019c565b60068390556001600160a01b03821615620000d45781620000d6565b835b600780546001600160a01b0319166001600160a01b0392909216919091179055600862000104828262000613565b505050506001600160a01b03166000908152600960205260408082208054600160ff19918216811790925530845291909220805490911690911790555062000875915050565b600580546001600160a01b038381166001600160a01b0319831681179093556040519116919082907f8be0079c531659141344cd1fd0a4f28419497f9722a3daafe3b4186f6b6457e090600090a35050565b6001600160a01b038216620001c85760405163ec442f0560e01b8152600060048201526024016200007e565b620001d660008383620001da565b5050565b6001600160a01b03831660009081526009602052604090205460ff16806200021a57506001600160a01b03821660009081526009602052604090205460ff165b80620002265750600654155b156200023e5762000239838383620002a6565b505050565b6000612710600654836200025391906200080c565b6200025f919062000826565b905060006200026f828462000849565b905081156200029257600754620002929086906001600160a01b031684620002a6565b6200029f858583620002a6565b5050505050565b6001600160a01b038316620002d5578060026000828254620002c991906200085f565b90915550620003499050565b6001600160a01b038316600090815260208190526040902054818110156200032a5760405163391434e360e21b81526001600160a01b038516600482015260248101829052604481018390526064016200007e565b6001600160a01b03841660009081526020819052604090209082900390555b6001600160a01b038216620003675760028054829003905562000386565b6001600160a01b03821660009081526020819052604090208054820190555b816001600160a01b0316836001600160a01b03167fddf252ad1be2c89b69c2b068fc378daa952ba7f163c4a11628f55a4df523b3ef83604051620003cc91815260200190565b60405180910390a3505050565b634e487b7160e01b600052604160045260246000fd5b600082601f8301126200040157600080fd5b81516001600160401b03808211156200041e576200041e620003d9565b604051601f8301601f19908116603f01168101908282118183101715620004495762000449620003d9565b816040528381526020925086838588010111156200046657600080fd5b600091505b838210156200048a57858201830151818301840152908201906200046b565b600093810190920192909252949350505050565b80516001600160a01b0381168114620004b657600080fd5b919050565b600080600080600080600060e0888a031215620004d757600080fd5b87516001600160401b0380821115620004ef57600080fd5b620004fd8b838c01620003ef565b985060208a01519150808211156200051457600080fd5b620005228b838c01620003ef565b975060408a015196506200053960608b016200049e565b955060808a015194506200055060a08b016200049e565b935060c08a01519150808211156200056757600080fd5b50620005768a828b01620003ef565b91505092959891949750929550565b600181811c908216806200059a57607f821691505b602082108103620005bb57634e487b7160e01b600052602260045260246000fd5b50919050565b601f8211156200023957600081815260208120601f850160051c81016020861015620005ea5750805b601f850160051c820191505b818110156200060b57828155600101620005f6565b505050505050565b81516001600160401b038111156200062f576200062f620003d9565b620006478162000640845462000585565b84620005c1565b602080601f8311600181146200067f5760008415620006665750858301515b600019600386901b1c1916600185901b1785556200060b565b600085815260208120601f198616915b82811015620006b0578886015182559484019460019091019084016200068f565b5085821015620006cf5787850151600019600388901b60f8161c191681555b5050505050600190811b01905550565b634e487b7160e01b600052601160045260246000fd5b600181815b80851115620007365781600019048211156200071a576200071a620006df565b808516156200072857918102915b93841c9390800290620006fa565b509250929050565b6000826200074f57506001620007ee565b816200075e57506000620007ee565b81600181146200077757600281146200078257620007a2565b6001915050620007ee565b60ff841115620007965762000796620006df565b50506001821b620007ee565b5060208310610133831016604e8410600b8410161715620007c7575081810a620007ee565b620007d38383620006f5565b8060001904821115620007ea57620007ea620006df565b0290505b92915050565b60006200080560ff8416836200073e565b9392505050565b8082028115828204841417620007ee57620007ee620006df565b6000826200084457634e487b7160e01b600052601260045260246000fd5b500490565b81810381811115620007ee57620007ee620006df565b80820180821115620007ee57620007ee620006df565b610f8680620008856000396000f3fe608060405234801561001057600080fd5b50600436106101425760003560e01c806370a08231116100b8578063a42dce801161007c578063a42dce80146102a6578063a9059cbb146102b9578063b8606eef146102cc578063c415b95c146102d5578063dd62ed3e146102e8578063f2fde38b1461032157600080fd5b806370a0823114610235578063715018a61461025e57806379cc6790146102665780638da5cb5b1461027957806395d89b411461029e57600080fd5b806318160ddd1161010a57806318160ddd146101b857806323b872dd146101ca578063313ce567146101dd57806342966c68146101ec5780635342acb4146101ff5780636612e66f1461022257600080fd5b80630165dd271461014757806304787ca21461015c57806306fdde031461016f578063095ea7b31461018d578063135d088d146101b0575b600080fd5b61015a610155366004610b52565b610334565b005b61015a61016a366004610b81565b6103be565b610177610402565b6040516101849190610c32565b60405180910390f35b6101a061019b366004610c9c565b610494565b6040519015158152602001610184565b6101776104ae565b6002545b604051908152602001610184565b6101a06101d8366004610cc6565b61053c565b60405160128152602001610184565b61015a6101fa366004610b52565b610560565b6101a061020d366004610d02565b60096020526000908152604090205460ff1681565b61015a610230366004610d24565b61056d565b6101bc610243366004610d02565b6001600160a01b031660009081526020819052604090205490565b61015a6105d8565b61015a610274366004610c9c565b6105ec565b6005546001600160a01b03165b6040516001600160a01b039091168152602001610184565b610177610605565b61015a6102b4366004610d02565b610614565b6101a06102c7366004610c9c565b6106af565b6101bc60065481565b600754610286906001600160a01b031681565b6101bc6102f6366004610d60565b6001600160a01b03918216600090815260016020908152604080832093909416825291909152205490565b61015a61032f366004610d02565b6106bd565b61033c6106f8565b6107d08111156103825760405162461bcd60e51b815260206004820152600c60248201526b08ccaca40e8dede40d0d2ced60a31b60448201526064015b60405180910390fd5b60068190556040518181527f8c4d35e54a3f2ef1134138fd8ea3daee6a3c89e10d2665996babdf70261e2c76906020015b60405180910390a150565b6103c66106f8565b60086103d28282610e1b565b507f9b9cd1b6d10196260eb379c94feef6204d1e0244b38efe9d31be6ad4055f22ea816040516103b39190610c32565b60606003805461041190610d93565b80601f016020809104026020016040519081016040528092919081815260200182805461043d90610d93565b801561048a5780601f1061045f5761010080835404028352916020019161048a565b820191906000526020600020905b81548152906001019060200180831161046d57829003601f168201915b5050505050905090565b6000336104a2818585610725565b60019150505b92915050565b600880546104bb90610d93565b80601f01602080910402602001604051908101604052809291908181526020018280546104e790610d93565b80156105345780601f1061050957610100808354040283529160200191610534565b820191906000526020600020905b81548152906001019060200180831161051757829003601f168201915b505050505081565b60003361054a858285610737565b6105558585856107b5565b506001949350505050565b61056a3382610814565b50565b6105756106f8565b6001600160a01b038216600081815260096020908152604091829020805460ff19168515159081179091558251938452908301527faf52feecf81343fee9ed3d93c2e2945736c55d9800211a4acb61222164c7d70d910160405180910390a15050565b6105e06106f8565b6105ea600061084a565b565b6105f7823383610737565b6106018282610814565b5050565b60606004805461041190610d93565b61061c6106f8565b6001600160a01b0381166106615760405162461bcd60e51b815260206004820152600c60248201526b5a65726f206164647265737360a01b6044820152606401610379565b600780546001600160a01b0319166001600160a01b0383169081179091556040519081527fe5693914d19c789bdee50a362998c0bc8d035a835f9871da5d51152f0582c34f906020016103b3565b6000336104a28185856107b5565b6106c56106f8565b6001600160a01b0381166106ef57604051631e4fbdf760e01b815260006004820152602401610379565b61056a8161084a565b6005546001600160a01b031633146105ea5760405163118cdaa760e01b8152336004820152602401610379565b610732838383600161089c565b505050565b6001600160a01b0383811660009081526001602090815260408083209386168352929052205460001981146107af57818110156107a057604051637dc7a0d960e11b81526001600160a01b03841660048201526024810182905260448101839052606401610379565b6107af8484848403600061089c565b50505050565b6001600160a01b0383166107df57604051634b637e8f60e11b815260006004820152602401610379565b6001600160a01b0382166108095760405163ec442f0560e01b815260006004820152602401610379565b610732838383610971565b6001600160a01b03821661083e57604051634b637e8f60e11b815260006004820152602401610379565b61060182600083610971565b600580546001600160a01b038381166001600160a01b0319831681179093556040519116919082907f8be0079c531659141344cd1fd0a4f28419497f9722a3daafe3b4186f6b6457e090600090a35050565b6001600160a01b0384166108c65760405163e602df0560e01b815260006004820152602401610379565b6001600160a01b0383166108f057604051634a1406b160e11b815260006004820152602401610379565b6001600160a01b03808516600090815260016020908152604080832093871683529290522082905580156107af57826001600160a01b0316846001600160a01b03167f8c5be1e5ebec7d5bd14f71427d1e84f3dd0314c0f7b2291e5b200ac8c7c3b9258460405161096391815260200190565b60405180910390a350505050565b6001600160a01b03831660009081526009602052604090205460ff16806109b057506001600160a01b03821660009081526009602052604090205460ff165b806109bb5750600654155b156109cb57610732838383610a28565b6000612710600654836109de9190610ef1565b6109e89190610f08565b905060006109f68284610f2a565b90508115610a1657600754610a169086906001600160a01b031684610a28565b610a21858583610a28565b5050505050565b6001600160a01b038316610a53578060026000828254610a489190610f3d565b90915550610ac59050565b6001600160a01b03831660009081526020819052604090205481811015610aa65760405163391434e360e21b81526001600160a01b03851660048201526024810182905260448101839052606401610379565b6001600160a01b03841660009081526020819052604090209082900390555b6001600160a01b038216610ae157600280548290039055610b00565b6001600160a01b03821660009081526020819052604090208054820190555b816001600160a01b0316836001600160a01b03167fddf252ad1be2c89b69c2b068fc378daa952ba7f163c4a11628f55a4df523b3ef83604051610b4591815260200190565b60405180910390a3505050565b600060208284031215610b6457600080fd5b5035919050565b634e487b7160e01b600052604160045260246000fd5b600060208284031215610b9357600080fd5b813567ffffffffffffffff80821115610bab57600080fd5b818401915084601f830112610bbf57600080fd5b813581811115610bd157610bd1610b6b565b604051601f8201601f19908116603f01168101908382118183101715610bf957610bf9610b6b565b81604052828152876020848701011115610c1257600080fd5b826020860160208301376000928101602001929092525095945050505050565b600060208083528351808285015260005b81811015610c5f57858101830151858201604001528201610c43565b506000604082860101526040601f19601f8301168501019250505092915050565b80356001600160a01b0381168114610c9757600080fd5b919050565b60008060408385031215610caf57600080fd5b610cb883610c80565b946020939093013593505050565b600080600060608486031215610cdb57600080fd5b610ce484610c80565b9250610cf260208501610c80565b9150604084013590509250925092565b600060208284031215610d1457600080fd5b610d1d82610c80565b9392505050565b60008060408385031215610d3757600080fd5b610d4083610c80565b915060208301358015158114610d5557600080fd5b809150509250929050565b60008060408385031215610d7357600080fd5b610d7c83610c80565b9150610d8a60208401610c80565b90509250929050565b600181811c90821680610da757607f821691505b602082108103610dc757634e487b7160e01b600052602260045260246000fd5b50919050565b601f82111561073257600081815260208120601f850160051c81016020861015610df45750805b601f850160051c820191505b81811015610e1357828155600101610e00565b505050505050565b815167ffffffffffffffff811115610e3557610e35610b6b565b610e4981610e438454610d93565b84610dcd565b602080601f831160018114610e7e5760008415610e665750858301515b600019600386901b1c1916600185901b178555610e13565b600085815260208120601f198616915b82811015610ead57888601518255948401946001909101908401610e8e565b5085821015610ecb5787850151600019600388901b60f8161c191681555b5050505050600190811b01905550565b634e487b7160e01b600052601160045260246000fd5b80820281158282048414176104a8576104a8610edb565b600082610f2557634e487b7160e01b600052601260045260246000fd5b500490565b818103818111156104a8576104a8610edb565b808201808211156104a8576104a8610edb56fea264697066735822122004188faf91c1cb57e5f0ca4c9585969ea15bb148c3d31b51f07b99bf453db65864736f6c6343000814003360e060405234801561001057600080fd5b506040516107aa3803806107aa83398101604081905261002f916101ce565b816001600160a01b03811661005f57604051631e4fbdf760e01b8152600060048201526024015b60405180910390fd5b61006881610162565b506001600160a01b0383166100af5760405162461bcd60e51b815260206004820152600d60248201526c2d32b937903638103a37b5b2b760991b6044820152606401610056565b6001600160a01b0382166100f85760405162461bcd60e51b815260206004820152601060248201526f5a65726f2062656e656669636961727960801b6044820152606401610056565b4281116101475760405162461bcd60e51b815260206004820152601560248201527f556e6c6f636b206d7573742062652066757475726500000000000000000000006044820152606401610056565b6001600160a01b03928316608052911660a05260c05261020a565b600080546001600160a01b038381166001600160a01b0319831681178455604051919092169283917f8be0079c531659141344cd1fd0a4f28419497f9722a3daafe3b4186f6b6457e09190a35050565b80516001600160a01b03811681146101c957600080fd5b919050565b6000806000606084860312156101e357600080fd5b6101ec846101b2565b92506101fa602085016101b2565b9150604084015190509250925092565b60805160a05160c05161055061025a6000396000818160d5015261015a0152600081816087015281816102a0015261037c015260008181610123015281816101ce01526102cf01526105506000f3fe608060405234801561001057600080fd5b506004361061007d5760003560e01c8063715018a61161005b578063715018a6146101055780638da5cb5b1461010d578063bfd9041b1461011e578063f2fde38b1461014557600080fd5b80632f99c6cc146100825780633ccfd60b146100c657806341319831146100d0575b600080fd5b6100a97f000000000000000000000000000000000000000000000000000000000000000081565b6040516001600160a01b0390911681526020015b60405180910390f35b6100ce610158565b005b6100f77f000000000000000000000000000000000000000000000000000000000000000081565b6040519081526020016100bd565b6100ce6103e0565b6000546001600160a01b03166100a9565b6100a97f000000000000000000000000000000000000000000000000000000000000000081565b6100ce6101533660046104af565b6103f4565b7f00000000000000000000000000000000000000000000000000000000000000004210156101b65760405162461bcd60e51b8152602060048201526006602482015265131bd8dad95960d21b60448201526064015b60405180910390fd5b6040516370a0823160e01b81523060048201526000907f00000000000000000000000000000000000000000000000000000000000000006001600160a01b0316906370a0823190602401602060405180830381865afa15801561021d573d6000803e3d6000fd5b505050506040513d601f19601f8201168201806040525081019061024191906104df565b9050600081116102895760405162461bcd60e51b81526020600482015260136024820152724e6f7468696e6720746f20776974686472617760681b60448201526064016101ad565b60405163a9059cbb60e01b81526001600160a01b037f000000000000000000000000000000000000000000000000000000000000000081166004830152602482018390527f0000000000000000000000000000000000000000000000000000000000000000169063a9059cbb906044016020604051808303816000875af1158015610318573d6000803e3d6000fd5b505050506040513d601f19601f8201168201806040525081019061033c91906104f8565b61037a5760405162461bcd60e51b815260206004820152600f60248201526e151c985b9cd9995c8819985a5b1959608a1b60448201526064016101ad565b7f00000000000000000000000000000000000000000000000000000000000000006001600160a01b03167f7084f5476618d8e60b11ef0d7d3f06914655adb8793e28ff7f018d4c76d505d5826040516103d591815260200190565b60405180910390a250565b6103e8610432565b6103f2600061045f565b565b6103fc610432565b6001600160a01b03811661042657604051631e4fbdf760e01b8152600060048201526024016101ad565b61042f8161045f565b50565b6000546001600160a01b031633146103f25760405163118cdaa760e01b81523360048201526024016101ad565b600080546001600160a01b038381166001600160a01b0319831681178455604051919092169283917f8be0079c531659141344cd1fd0a4f28419497f9722a3daafe3b4186f6b6457e09190a35050565b6000602082840312156104c157600080fd5b81356001600160a01b03811681146104d857600080fd5b9392505050565b6000602082840312156104f157600080fd5b5051919050565b60006020828403121561050a57600080fd5b815180151581146104d857600080fdfea26469706673582212202da9245337867057d282fe78abebfe294967a8620c50b964455529551649868364736f6c63430008140033a2646970667358221220d84acc6cf592b43c876ef746a415e9975e45aa800e9bb65b380fbf288cdfd9f064736f6c63430008140033",
  "devdoc": {
    "kind": "dev",
    "methods": {},
    "version": 1
  },
  "userdoc": {
    "kind": "user",
    "methods": {},
    "version": 1
  },
  "storageLayout": {
    "storage": [
      {
        "astId": 1135,
        "contract": "contracts/MemeLaunchpad.sol:MemeLaunchpad",
        "label": "allTokens",
        "offset": 0,
        "slot": "0",
        "type": "t_array(t_struct(TokenInfo)1131_storage)dyn_storage"
      },
      {
        "astId": 1140,
        "contract": "contracts/MemeLaunchpad.sol:MemeLaunchpad",
        "label": "tokensByCreator",
        "offset": 0,
        "slot": "1",
        "type": "t_mapping(t_address,t_array(t_address)dyn_storage)"
      }
    ],
    "types": {
      "t_address": {
        "encoding": "inplace",
        "label": "address",
        "numberOfBytes": "20"
      },
      "t_array(t_address)dyn_storage": {
        "base": "t_address",
        "encoding": "dynamic_array",
        "label": "address[]",
        "numberOfBytes": "32"
      },
      "t_array(t_struct(TokenInfo)1131_storage)dyn_storage": {
        "base": "t_struct(TokenInfo)1131_storage",
        "encoding": "dynamic_array",
        "label": "struct MemeLaunchpad.TokenInfo[]",
        "numberOfBytes": "32"
      },
      "t_mapping(t_address,t_array(t_address)dyn_storage)": {
        "encoding": "mapping",
        "key": "t_address",
        "label": "mapping(address => address[])",
        "numberOfBytes": "32",
        "value": "t_array(t_address)dyn_storage"
      },
      "t_string_storage": {
        "encoding": "bytes",
        "label": "string",
        "numberOfBytes": "32"
      },
      "t_struct(TokenInfo)1131_storage": {
        "encoding": "inplace",
        "label": "struct MemeLaunchpad.TokenInfo",
        "members": [
          {
            "astId": 1118,
            "contract": "contracts/MemeLaunchpad.sol:MemeLaunchpad",
            "label": "token",
            "offset": 0,
            "slot": "0",
            "type": "t_address"
          },
          {
            "astId": 1120,
            "contract": "contracts/MemeLaunchpad.sol:MemeLaunchpad",
            "label": "creator",
            "offset": 0,
            "slot": "1",
            "type": "t_address"
          },
          {
            "astId": 1122,
            "contract": "contracts/MemeLaunchpad.sol:MemeLaunchpad",
            "label": "name",
            "offset": 0,
            "slot": "2",
            "type": "t_string_storage"
          },
          {
            "astId": 1124,
            "contract": "contracts/MemeLaunchpad.sol:MemeLaunchpad",
            "label": "symbol",
            "offset": 0,
            "slot": "3",
            "type": "t_string_storage"
          },
          {
            "astId": 1126,
            "contract": "contracts/MemeLaunchpad.sol:MemeLaunchpad",
            "label": "supply",
            "offset": 0,
            "slot": "4",
            "type": "t_uint256"
          },
          {
            "astId": 1128,
            "contract": "contracts/MemeLaunchpad.sol:MemeLaunchpad",
            "label": "timestamp",
            "offset": 0,
            "slot": "5",
            "type": "t_uint256"
          },
          {
            "astId": 1130,
            "contract": "contracts/MemeLaunchpad.sol:MemeLaunchpad",
            "label": "imageURI",
            "offset": 0,
            "slot": "6",
            "type": "t_string_storage"
          }
        ],
        "numberOfBytes": "224"
      },
      "t_uint256": {
        "encoding": "inplace",
        "label": "uint256",
        "numberOfBytes": "32"
      }
    }
  }
}