{
  "address": "0x5AD8aa8C13D7F4aC7D2Fe3a82F4fAfe894B5e031",
  "abi": [
    {
      "anonymous": false,
      "inputs": [
        {
          "indexed": true,
          "internalType": "address",
          "name": "locker",
          "type": "address"
        },
        {
          "indexed": true,
          "internalType": "address",
          "name": "lpToken",
          "type": "address"
        },
        {
          "indexed": true,
          "internalType": "address",
          "name": "beneficiary",
          "type": "address"
        },
        {
          "indexed": false,
          "internalType": "uint256",
          "name": "unlockTime",
          "type": "uint256"
        },
        {
          "indexed": false,
          "internalType": "uint256",
          "name": "amount",
          "type": "uint256"
        }
      ],
      "name": "LiquidityLocked",
      "type": "event"
    },
    {
      "anonymous": false,
      "inputs": [
        {
          "indexed": true,
          "internalType": "address",
          "name": "creator",
          "type": "address"
        },
        {
          "indexed": true,
          "internalType": "address",
          "name": "token",
          "type": "address"
        },
        {
          "indexed": false,
          "internalType": "string",
          "name": "name",
          "type": "string"
        },
        {
          "indexed": false,
          "internalType": "string",
          "name": "symbol",
          "type": "string"
        },
        {
          "indexed": false,
          "internalType": "uint256",
          "name": "supply",
          "type": "uint256"
        }
      ],
      "name": "TokenCreated",
      "type": "event"
    },
    {
      "inputs": [
        {
          "internalType": "uint256",
          "name": "",
          "type": "uint256"
        }
      ],
      "name": "allTokens",
      "outputs": [
        {
          "internalType": "address",
          "name": "token",
          "type": "address"
        },
        {
          "internalType": "address",
          "name": "creator",
          "type": "address"
        },
        {
          "internalType": "string",
          "name": "name",
          "type": "string"
        },
        {
          "internalType": "string",
          "name": "symbol",
          "type": "string"
        },
        {
          "internalType": "uint256",
          "name": "supply",
          "type": "uint256"
        },
        {
          "internalType": "uint256",
          "name": "timestamp",
          "type": "uint256"
        }
      ],
      "stateMutability": "view",
      "type": "function"
    },
    {
      "inputs": [],
      "name": "allTokensLength",
      "outputs": [
        {
          "internalType": "uint256",
          "name": "",
          "type": "uint256"
        }
      ],
      "stateMutability": "view",
      "type": "function"
    },
    {
      "inputs": [
        {
          "internalType": "string",
          "name": "name_",
          "type": "string"
        },
        {
          "internalType": "string",
          "name": "symbol_",
          "type": "string"
        },
        {
          "internalType": "uint256",
          "name": "initialSupply",
          "type": "uint256"
        },
        {
          "internalType": "uint256",
          "name": "feeBasisPoints",
          "type": "uint256"
        },
        {
          "internalType": "address",
          "name": "feeCollector",
          "type": "address"
        }
      ],
      "name": "createMemeToken",
      "outputs": [
        {
          "internalType": "address",
          "name": "token",
          "type": "address"
        }
      ],
      "stateMutability": "nonpayable",
      "type": "function"
    },
    {
      "inputs": [
        {
          "internalType": "address",
          "name": "lpToken",
          "type": "address"
        },
        {
          "internalType": "uint256",
          "name": "amount",
          "type": "uint256"
        },
        {
          "internalType": "uint256",
          "name": "unlockTime",
          "type": "uint256"
        },
        {
          "internalType": "address",
          "name": "beneficiary",
          "type": "address"
        }
      ],
      "name": "lockLiquidity",
      "outputs": [
        {
          "internalType": "address",
          "name": "locker",
          "type": "address"
        }
      ],
      "stateMutability": "nonpayable",
      "type": "function"
    },
    {
      "inputs": [
        {
          "internalType": "address",
          "name": "",
          "type": "address"
        },
        {
          "internalType": "uint256",
          "name": "",
          "type": "uint256"
        }
      ],
      "name": "tokensByCreator",
      "outputs": [
        {
          "internalType": "address",
          "name": "",
          "type": "address"
        }
      ],
      "stateMutability": "view",
      "type": "function"
    },
    {
      "inputs": [
        {
          "internalType": "address",
          "name": "creator",
          "type": "address"
        }
      ],
      "name": "tokensOf",
      "outputs": [
        {
          "internalType": "address[]",
          "name": "",
          "type": "address[]"
        }
      ],
      "stateMutability": "view",
      "type": "function"
    }
  ],
  "transactionHash": "0x7362d1ea681b2fa5b27fe0da32e412b925a22cf37025be50559ebfe671268000",
  "args": [],
  "numDeployments": 1,
  "solcInputHash": "c23fd0322ea504cd082288269f774b67",
  "bytecode": "0x608060405234801561001057600080fd5b506129a4806100206000396000f3fe60806040523480156200001157600080fd5b50600436106200006a5760003560e01c806326ccde95146200006f5780635a3f267214620000a3578063634282af14620000c95780637f4d4fa814620000f4578063d80d03a2146200010b578063dbb80e421462000122575b600080fd5b620000866200008036600462000887565b62000134565b6040516001600160a01b0390911681526020015b60405180910390f35b620000ba620000b436600462000918565b6200031e565b6040516200009a91906200093d565b620000e0620000da3660046200098c565b62000396565b6040516200009a96959493929190620009ee565b620000866200010536600462000a46565b6200050d565b620000866200011c36600462000a91565b6200076a565b6000546040519081526020016200009a565b6000808686863387876040516200014b90620007a3565b6200015c9695949392919062000abe565b604051809103906000f08015801562000179573d6000803e3d6000fd5b506040805160c0810182526001600160a01b03808416825233602083019081529282018b8152606083018b9052608083018a90524260a084015260008054600181018255908052835160069091027f290decd9548b62a8d60345a988386fc84ba6bc95484008f6362f93160ef3e563810180549285166001600160a01b031993841617815595517f290decd9548b62a8d60345a988386fc84ba6bc95484008f6362f93160ef3e56482018054919095169216919091179092555193955085945090927f290decd9548b62a8d60345a988386fc84ba6bc95484008f6362f93160ef3e565909101906200026c908262000ba7565b506060820151600382019062000283908262000ba7565b506080820151600482015560a09091015160059091015533600081815260016020818152604080842080549384018155845292200180546001600160a01b0319166001600160a01b03861690811790915590519091907f6e6ae68e7d7d45fbd855c40d1eaafa8de46c5fbec3ee26f1af88730e400bc92c906200030c908b908b908b9062000c74565b60405180910390a35095945050505050565b6001600160a01b0381166000908152600160209081526040918290208054835181840281018401909452808452606093928301828280156200038a57602002820191906000526020600020905b81546001600160a01b031681526001909101906020018083116200036b575b50505050509050919050565b60008181548110620003a757600080fd5b60009182526020909120600690910201805460018201546002830180546001600160a01b039384169550929091169291620003e29062000b18565b80601f0160208091040260200160405190810160405280929190818152602001828054620004109062000b18565b8015620004615780601f10620004355761010080835404028352916020019162000461565b820191906000526020600020905b8154815290600101906020018083116200044357829003601f168201915b505050505090806003018054620004789062000b18565b80601f0160208091040260200160405190810160405280929190818152602001828054620004a69062000b18565b8015620004f75780601f10620004cb57610100808354040283529160200191620004f7565b820191906000526020600020905b815481529060010190602001808311620004d957829003601f168201915b5050505050908060040154908060050154905086565b6000808411620005525760405162461bcd60e51b815260206004820152600b60248201526a16995c9bc8185b5bdd5b9d60aa1b60448201526064015b60405180910390fd5b428311620005a35760405162461bcd60e51b815260206004820152601a60248201527f556e6c6f636b2074696d65206d75737420626520667574757265000000000000604482015260640162000549565b6001600160a01b038216620005ee5760405162461bcd60e51b815260206004820152601060248201526f5a65726f2062656e656669636961727960801b604482015260640162000549565b60008583856040516200060190620007b1565b6001600160a01b0393841681529290911660208301526040820152606001604051809103906000f0801580156200063c573d6000803e3d6000fd5b506040516323b872dd60e01b81523360048201526001600160a01b03808316602483015260448201889052919350839250908716906323b872dd906064016020604051808303816000875af11580156200069a573d6000803e3d6000fd5b505050506040513d601f19601f82011682018060405250810190620006c0919062000cae565b620007005760405162461bcd60e51b815260206004820152600f60248201526e151c985b9cd9995c8819985a5b1959608a1b604482015260640162000549565b826001600160a01b0316866001600160a01b0316836001600160a01b03167fc5a836c46c8b17eb789de5792db3980d43142d4730af6abc60ab0a334c59b9f9878960405162000759929190918252602082015260400190565b60405180910390a450949350505050565b600160205281600052604060002081815481106200078757600080fd5b6000918252602090912001546001600160a01b03169150829050565b6114f28062000cd383390190565b6107aa80620021c583390190565b634e487b7160e01b600052604160045260246000fd5b600082601f830112620007e757600080fd5b813567ffffffffffffffff80821115620008055762000805620007bf565b604051601f8301601f19908116603f01168101908282118183101715620008305762000830620007bf565b816040528381528660208588010111156200084a57600080fd5b836020870160208301376000602085830101528094505050505092915050565b80356001600160a01b03811681146200088257600080fd5b919050565b600080600080600060a08688031215620008a057600080fd5b853567ffffffffffffffff80821115620008b957600080fd5b620008c789838a01620007d5565b96506020880135915080821115620008de57600080fd5b50620008ed88828901620007d5565b94505060408601359250606086013591506200090c608087016200086a565b90509295509295909350565b6000602082840312156200092b57600080fd5b62000936826200086a565b9392505050565b6020808252825182820181905260009190848201906040850190845b81811015620009805783516001600160a01b03168352928401929184019160010162000959565b50909695505050505050565b6000602082840312156200099f57600080fd5b5035919050565b6000815180845260005b81811015620009ce57602081850181015186830182015201620009b0565b506000602082860101526020601f19601f83011685010191505092915050565b6001600160a01b0387811682528616602082015260c06040820181905260009062000a1c90830187620009a6565b828103606084015262000a308187620009a6565b6080840195909552505060a00152949350505050565b6000806000806080858703121562000a5d57600080fd5b62000a68856200086a565b9350602085013592506040850135915062000a86606086016200086a565b905092959194509250565b6000806040838503121562000aa557600080fd5b62000ab0836200086a565b946020939093013593505050565b60c08152600062000ad360c0830189620009a6565b828103602084015262000ae78189620009a6565b604084019790975250506001600160a01b039384166060820152608081019290925290911660a09091015292915050565b600181811c9082168062000b2d57607f821691505b60208210810362000b4e57634e487b7160e01b600052602260045260246000fd5b50919050565b601f82111562000ba257600081815260208120601f850160051c8101602086101562000b7d5750805b601f850160051c820191505b8181101562000b9e5782815560010162000b89565b5050505b505050565b815167ffffffffffffffff81111562000bc45762000bc4620007bf565b62000bdc8162000bd5845462000b18565b8462000b54565b602080601f83116001811462000c14576000841562000bfb5750858301515b600019600386901b1c1916600185901b17855562000b9e565b600085815260208120601f198616915b8281101562000c455788860151825594840194600190910190840162000c24565b508582101562000c645787850151600019600388901b60f8161c191681555b5050505050600190811b01905550565b60608152600062000c896060830186620009a6565b828103602084015262000c9d8186620009a6565b915050826040830152949350505050565b60006020828403121562000cc157600080fd5b815180151581146200093657600080fdfe60806040523480156200001157600080fd5b50604051620014f2380380620014f28339810160408190526200003491620004a3565b8286866003620000458382620005d2565b506004620000548282620005d2565b5050506001600160a01b0381166200008757604051631e4fbdf760e01b8152600060048201526024015b60405180910390fd5b620000928162000132565b50620000b883620000a66012600a620007b3565b620000b29087620007cb565b62000184565b60068290556001600160a01b03811615620000d45780620000d6565b825b600780546001600160a01b0319166001600160a01b0392831617905592909216600090815260086020526040808220805460ff199081166001908117909255308452919092208054909116909117905550620008349350505050565b600580546001600160a01b038381166001600160a01b0319831681179093556040519116919082907f8be0079c531659141344cd1fd0a4f28419497f9722a3daafe3b4186f6b6457e090600090a35050565b6001600160a01b038216620001b05760405163ec442f0560e01b8152600060048201526024016200007e565b620001be60008383620001c2565b5050565b6001600160a01b03831660009081526008602052604090205460ff16806200020257506001600160a01b03821660009081526008602052604090205460ff165b806200020e5750600654155b156200022657620002218383836200028e565b505050565b6000612710600654836200023b9190620007cb565b620002479190620007e5565b9050600062000257828462000808565b905081156200027a576007546200027a9086906001600160a01b0316846200028e565b620002878585836200028e565b5050505050565b6001600160a01b038316620002bd578060026000828254620002b191906200081e565b90915550620003319050565b6001600160a01b03831660009081526020819052604090205481811015620003125760405163391434e360e21b81526001600160a01b038516600482015260248101829052604481018390526064016200007e565b6001600160a01b03841660009081526020819052604090209082900390555b6001600160a01b0382166200034f576002805482900390556200036e565b6001600160a01b03821660009081526020819052604090208054820190555b816001600160a01b0316836001600160a01b03167fddf252ad1be2c89b69c2b068fc378daa952ba7f163c4a11628f55a4df523b3ef83604051620003b491815260200190565b60405180910390a3505050565b634e487b7160e01b600052604160045260246000fd5b600082601f830112620003e957600080fd5b81516001600160401b0380821115620004065762000406620003c1565b604051601f8301601f19908116603f01168101908282118183101715620004315762000431620003c1565b816040528381526020925086838588010111156200044e57600080fd5b600091505b8382101562000472578582018301518183018401529082019062000453565b600093810190920192909252949350505050565b80516001600160a01b03811681146200049e57600080fd5b919050565b60008060008060008060c08789031215620004bd57600080fd5b86516001600160401b0380821115620004d557600080fd5b620004e38a838b01620003d7565b97506020890151915080821115620004fa57600080fd5b506200050989828a01620003d7565b95505060408701519350620005216060880162000486565b9250608087015191506200053860a0880162000486565b90509295509295509295565b600181811c908216806200055957607f821691505b6020821081036200057a57634e487b7160e01b600052602260045260246000fd5b50919050565b601f8211156200022157600081815260208120601f850160051c81016020861015620005a95750805b601f850160051c820191505b81811015620005ca57828155600101620005b5565b505050505050565b81516001600160401b03811115620005ee57620005ee620003c1565b6200060681620005ff845462000544565b8462000580565b602080601f8311600181146200063e5760008415620006255750858301515b600019600386901b1c1916600185901b178555620005ca565b600085815260208120601f198616915b828110156200066f578886015182559484019460019091019084016200064e565b50858210156200068e5787850151600019600388901b60f8161c191681555b5050505050600190811b01905550565b634e487b7160e01b600052601160045260246000fd5b600181815b80851115620006f5578160001904821115620006d957620006d96200069e565b80851615620006e757918102915b93841c9390800290620006b9565b509250929050565b6000826200070e57506001620007ad565b816200071d57506000620007ad565b8160018114620007365760028114620007415762000761565b6001915050620007ad565b60ff8411156200075557620007556200069e565b50506001821b620007ad565b5060208310610133831016604e8410600b841016171562000786575081810a620007ad565b620007928383620006b4565b8060001904821115620007a957620007a96200069e565b0290505b92915050565b6000620007c460ff841683620006fd565b9392505050565b8082028115828204841417620007ad57620007ad6200069e565b6000826200080357634e487b7160e01b600052601260045260246000fd5b500490565b81810381811115620007ad57620007ad6200069e565b80820180821115620007ad57620007ad6200069e565b610cae80620008446000396000f3fe608060405234801561001057600080fd5b506004361061012c5760003560e01c8063715018a6116100ad578063a9059cbb11610071578063a9059cbb14610288578063b8606eef1461029b578063c415b95c146102a4578063dd62ed3e146102b7578063f2fde38b146102f057600080fd5b8063715018a61461022d57806379cc6790146102355780638da5cb5b1461024857806395d89b411461026d578063a42dce801461027557600080fd5b8063313ce567116100f4578063313ce567146101ac57806342966c68146101bb5780635342acb4146101ce5780636612e66f146101f157806370a082311461020457600080fd5b80630165dd271461013157806306fdde0314610146578063095ea7b31461016457806318160ddd1461018757806323b872dd14610199575b600080fd5b61014461013f366004610a4f565b610303565b005b61014e61038d565b60405161015b9190610a68565b60405180910390f35b610177610172366004610ad2565b61041f565b604051901515815260200161015b565b6002545b60405190815260200161015b565b6101776101a7366004610afc565b610439565b6040516012815260200161015b565b6101446101c9366004610a4f565b61045d565b6101776101dc366004610b38565b60086020526000908152604090205460ff1681565b6101446101ff366004610b5a565b61046a565b61018b610212366004610b38565b6001600160a01b031660009081526020819052604090205490565b6101446104d5565b610144610243366004610ad2565b6104e9565b6005546001600160a01b03165b6040516001600160a01b03909116815260200161015b565b61014e610502565b610144610283366004610b38565b610511565b610177610296366004610ad2565b6105ac565b61018b60065481565b600754610255906001600160a01b031681565b61018b6102c5366004610b96565b6001600160a01b03918216600090815260016020908152604080832093909416825291909152205490565b6101446102fe366004610b38565b6105ba565b61030b6105f5565b6107d08111156103515760405162461bcd60e51b815260206004820152600c60248201526b08ccaca40e8dede40d0d2ced60a31b60448201526064015b60405180910390fd5b60068190556040518181527f8c4d35e54a3f2ef1134138fd8ea3daee6a3c89e10d2665996babdf70261e2c76906020015b60405180910390a150565b60606003805461039c90610bc9565b80601f01602080910402602001604051908101604052809291908181526020018280546103c890610bc9565b80156104155780601f106103ea57610100808354040283529160200191610415565b820191906000526020600020905b8154815290600101906020018083116103f857829003601f168201915b5050505050905090565b60003361042d818585610622565b60019150505b92915050565b600033610447858285610634565b6104528585856106b2565b506001949350505050565b6104673382610711565b50565b6104726105f5565b6001600160a01b038216600081815260086020908152604091829020805460ff19168515159081179091558251938452908301527faf52feecf81343fee9ed3d93c2e2945736c55d9800211a4acb61222164c7d70d910160405180910390a15050565b6104dd6105f5565b6104e76000610747565b565b6104f4823383610634565b6104fe8282610711565b5050565b60606004805461039c90610bc9565b6105196105f5565b6001600160a01b03811661055e5760405162461bcd60e51b815260206004820152600c60248201526b5a65726f206164647265737360a01b6044820152606401610348565b600780546001600160a01b0319166001600160a01b0383169081179091556040519081527fe5693914d19c789bdee50a362998c0bc8d035a835f9871da5d51152f0582c34f90602001610382565b60003361042d8185856106b2565b6105c26105f5565b6001600160a01b0381166105ec57604051631e4fbdf760e01b815260006004820152602401610348565b61046781610747565b6005546001600160a01b031633146104e75760405163118cdaa760e01b8152336004820152602401610348565b61062f8383836001610799565b505050565b6001600160a01b0383811660009081526001602090815260408083209386168352929052205460001981146106ac578181101561069d57604051637dc7a0d960e11b81526001600160a01b03841660048201526024810182905260448101839052606401610348565b6106ac84848484036000610799565b50505050565b6001600160a01b0383166106dc57604051634b637e8f60e11b815260006004820152602401610348565b6001600160a01b0382166107065760405163ec442f0560e01b815260006004820152602401610348565b61062f83838361086e565b6001600160a01b03821661073b57604051634b637e8f60e11b815260006004820152602401610348565b6104fe8260008361086e565b600580546001600160a01b038381166001600160a01b0319831681179093556040519116919082907f8be0079c531659141344cd1fd0a4f28419497f9722a3daafe3b4186f6b6457e090600090a35050565b6001600160a01b0384166107c35760405163e602df0560e01b815260006004820152602401610348565b6001600160a01b0383166107ed57604051634a1406b160e11b815260006004820152602401610348565b6001600160a01b03808516600090815260016020908152604080832093871683529290522082905580156106ac57826001600160a01b0316846001600160a01b03167f8c5be1e5ebec7d5bd14f71427d1e84f3dd0314c0f7b2291e5b200ac8c7c3b9258460405161086091815260200190565b60405180910390a350505050565b6001600160a01b03831660009081526008602052604090205460ff16806108ad57506001600160a01b03821660009081526008602052604090205460ff165b806108b85750600654155b156108c85761062f838383610925565b6000612710600654836108db9190610c19565b6108e59190610c30565b905060006108f38284610c52565b90508115610913576007546109139086906001600160a01b031684610925565b61091e858583610925565b5050505050565b6001600160a01b0383166109505780600260008282546109459190610c65565b909155506109c29050565b6001600160a01b038316600090815260208190526040902054818110156109a35760405163391434e360e21b81526001600160a01b03851660048201526024810182905260448101839052606401610348565b6001600160a01b03841660009081526020819052604090209082900390555b6001600160a01b0382166109de576002805482900390556109fd565b6001600160a01b03821660009081526020819052604090208054820190555b816001600160a01b0316836001600160a01b03167fddf252ad1be2c89b69c2b068fc378daa952ba7f163c4a11628f55a4df523b3ef83604051610a4291815260200190565b60405180910390a3505050565b600060208284031215610a6157600080fd5b5035919050565b600060208083528351808285015260005b81811015610a9557858101830151858201604001528201610a79565b506000604082860101526040601f19601f8301168501019250505092915050565b80356001600160a01b0381168114610acd57600080fd5b919050565b60008060408385031215610ae557600080fd5b610aee83610ab6565b946020939093013593505050565b600080600060608486031215610b1157600080fd5b610b1a84610ab6565b9250610b2860208501610ab6565b9150604084013590509250925092565b600060208284031215610b4a57600080fd5b610b5382610ab6565b9392505050565b60008060408385031215610b6d57600080fd5b610b7683610ab6565b915060208301358015158114610b8b57600080fd5b809150509250929050565b60008060408385031215610ba957600080fd5b610bb283610ab6565b9150610bc060208401610ab6565b90509250929050565b600181811c90821680610bdd57607f821691505b602082108103610bfd57634e487b7160e01b600052602260045260246000fd5b50919050565b634e487b7160e01b600052601160045260246000fd5b808202811582820484141761043357610433610c03565b600082610c4d57634e487b7160e01b600052601260045260246000fd5b500490565b8181038181111561043357610433610c03565b8082018082111561043357610433610c0356fea26469706673582212207a83ddaddb422eb98f663ba4ef8166871a9412d909b3bdc85e97408832a3180264736f6c6343000814003360e060405234801561001057600080fd5b506040516107aa3803806107aa83398101604081905261002f916101ce565b816001600160a01b03811661005f57604051631e4fbdf760e01b8152600060048201526024015b60405180910390fd5b61006881610162565b506001600160a01b0383166100af5760405162461bcd60e51b815260206004820152600d60248201526c2d32b937903638103a37b5b2b760991b6044820152606401610056565b6001600160a01b0382166100f85760405162461bcd60e51b815260206004820152601060248201526f5a65726f2062656e656669636961727960801b6044820152606401610056565b4281116101475760405162461bcd60e51b815260206004820152601560248201527f556e6c6f636b206d7573742062652066757475726500000000000000000000006044820152606401610056565b6001600160a01b03928316608052911660a05260c05261020a565b600080546001600160a01b038381166001600160a01b0319831681178455604051919092169283917f8be0079c531659141344cd1fd0a4f28419497f9722a3daafe3b4186f6b6457e09190a35050565b80516001600160a01b03811681146101c957600080fd5b919050565b6000806000606084860312156101e357600080fd5b6101ec846101b2565b92506101fa602085016101b2565b9150604084015190509250925092565b60805160a05160c05161055061025a6000396000818160d5015261015a0152600081816087015281816102a0015261037c015260008181610123015281816101ce01526102cf01526105506000f3fe608060405234801561001057600080fd5b506004361061007d5760003560e01c8063715018a61161005b578063715018a6146101055780638da5cb5b1461010d578063bfd9041b1461011e578063f2fde38b1461014557600080fd5b80632f99c6cc146100825780633ccfd60b146100c657806341319831146100d0575b600080fd5b6100a97f000000000000000000000000000000000000000000000000000000000000000081565b6040516001600160a01b0390911681526020015b60405180910390f35b6100ce610158565b005b6100f77f000000000000000000000000000000000000000000000000000000000000000081565b6040519081526020016100bd565b6100ce6103e0565b6000546001600160a01b03166100a9565b6100a97f000000000000000000000000000000000000000000000000000000000000000081565b6100ce6101533660046104af565b6103f4565b7f00000000000000000000000000000000000000000000000000000000000000004210156101b65760405162461bcd60e51b8152602060048201526006602482015265131bd8dad95960d21b60448201526064015b60405180910390fd5b6040516370a0823160e01b81523060048201526000907f00000000000000000000000000000000000000000000000000000000000000006001600160a01b0316906370a0823190602401602060405180830381865afa15801561021d573d6000803e3d6000fd5b505050506040513d601f19601f8201168201806040525081019061024191906104df565b9050600081116102895760405162461bcd60e51b81526020600482015260136024820152724e6f7468696e6720746f20776974686472617760681b60448201526064016101ad565b60405163a9059cbb60e01b81526001600160a01b037f000000000000000000000000000000000000000000000000000000000000000081166004830152602482018390527f0000000000000000000000000000000000000000000000000000000000000000169063a9059cbb906044016020604051808303816000875af1158015610318573d6000803e3d6000fd5b505050506040513d601f19601f8201168201806040525081019061033c91906104f8565b61037a5760405162461bcd60e51b815260206004820152600f60248201526e151c985b9cd9995c8819985a5b1959608a1b60448201526064016101ad565b7f00000000000000000000000000000000000000000000000000000000000000006001600160a01b03167f7084f5476618d8e60b11ef0d7d3f06914655adb8793e28ff7f018d4c76d505d5826040516103d591815260200190565b60405180910390a250565b6103e8610432565b6103f2600061045f565b565b6103fc610432565b6001600160a01b03811661042657604051631e4fbdf760e01b8152600060048201526024016101ad565b61042f8161045f565b50565b6000546001600160a01b031633146103f25760405163118cdaa760e01b81523360048201526024016101ad565b600080546001600160a01b038381166001600160a01b0319831681178455604051919092169283917f8be0079c531659141344cd1fd0a4f28419497f9722a3daafe3b4186f6b6457e09190a35050565b6000602082840312156104c157600080fd5b81356001600160a01b03811681146104d857600080fd5b9392505050565b6000602082840312156104f157600080fd5b5051919050565b60006020828403121561050a57600080fd5b815180151581146104d857600080fdfea26469706673582212202da9245337867057d282fe78abebfe294967a8620c50b964455529551649868364736f6c63430008140033a2646970667358221220e3875de2a4b23b00908597d5f45c1be41eb24c28ca2b33d6a059bf8e564662e464736f6c63430008140033",
  "devdoc": {
    "kind": "dev",
    "methods": {},
    "version": 1
  },
  "userdoc": {
    "kind": "user",
    "methods": {},
    "version": 1
  },
  "storageLayout": {
    "storage": [
      {
        "astId": 1133,
        "contract": "contracts/MemeLaunchpad.sol:MemeLaunchpad",
        "label": "allTokens",
        "offset": 0,
        "slot": "0",
        "type": "t_array(t_struct(TokenInfo)1129_storage)dyn_storage"
      },
      {
        "astId": 1138,
        "contract": "contracts/MemeLaunchpad.sol:MemeLaunchpad",
        "label": "tokensByCreator",
        "offset": 0,
        "slot": "1",
        "type": "t_mapping(t_address,t_array(t_address)dyn_storage)"
      }
    ],
    "types": {
      "t_address": {
        "encoding": "inplace",
        "label": "address",
        "numberOfBytes": "20"
      },
      "t_array(t_address)dyn_storage": {
        "base": "t_address",
        "encoding": "dynamic_array",
        "label": "address[]",
        "numberOfBytes": "32"
      },
      "t_array(t_struct(TokenInfo)1129_storage)dyn_storage": {
        "base": "t_struct(TokenInfo)1129_storage",
        "encoding": "dynamic_array",
        "label": "struct MemeLaunchpad.TokenInfo[]",
        "numberOfBytes": "32"
      },
      "t_mapping(t_address,t_array(t_address)dyn_storage)": {
        "encoding": "mapping",
        "key": "t_address",
        "label": "mapping(address => address[])",
        "numberOfBytes": "32",
        "value": "t_array(t_address)dyn_storage"
      },
      "t_string_storage": {
        "encoding": "bytes",
        "label": "string",
        "numberOfBytes": "32"
      },
      "t_struct(TokenInfo)1129_storage": {
        "encoding": "inplace",
        "label": "struct MemeLaunchpad.TokenInfo",
        "members": [
          {
            "astId": 1118,
            "contract": "contracts/MemeLaunchpad.sol:MemeLaunchpad",
            "label": "token",
            "offset": 0,
            "slot": "0",
            "type": "t_address"
          },
          {
            "astId": 1120,
            "contract": "contracts/MemeLaunchpad.sol:MemeLaunchpad",
            "label": "creator",
            "offset": 0,
            "slot": "1",
            "type": "t_address"
          },
          {
            "astId": 1122,
            "contract": "contracts/MemeLaunchpad.sol:MemeLaunchpad",
            "label": "name",
            "offset": 0,
            "slot": "2",
            "type": "t_string_storage"
          },
          {
            "astId": 1124,
            "contract": "contracts/MemeLaunchpad.sol:MemeLaunchpad",
            "label": "symbol",
            "offset": 0,
            "slot": "3",
            "type": "t_string_storage"
          },
          {
            "astId": 1126,
            "contract": "contracts/MemeLaunchpad.sol:MemeLaunchpad",
            "label": "supply",
            "offset": 0,
            "slot": "4",
            "type": "t_uint256"
          },
          {
            "astId": 1128,
            "contract": "contracts/MemeLaunchpad.sol:MemeLaunchpad",
            "label": "timestamp",
            "offset": 0,
            "slot": "5",
            "type": "t_uint256"
          }
        ],
        "numberOfBytes": "192"
      },
      "t_uint256": {
        "encoding": "inplace",
        "label": "uint256",
        "numberOfBytes": "32"
      }
    }
  }
}